:020000040000FA
:04000000FEEFFFF020
:020000040001F9
:10FE1E0012000D2A1200900E03011A6F540E1B6F62
:10FE2E001200000EC66E000E0401006FC00EBE6EF4
:10FE3E00A00E00017F6F000E7D6F1200000E096E86
:10FE4E00000E0A6E000E0B6E000E0C6E000E056E8E
:10FE5E00000E066E000E076E000E086E12000301F5
:10FE6E001A9F0F1C116E101C126E12C511F5126A1C
:10FE7E001150196F0F50FF0A186FB19E1A8F120092
:10FE8E00FC0EF66EFE0EF76E010EF86E01EE00F22F
:10FE9E0010EE00F10900F5C4EEF4E550E150FAE180
:10FEAE00E250F8E101EE01F10E0EEE6AE806FDE118
:10FEBE00000162EFFFF0048E0FECFFF025ECFFF077
:10FECE0018ECFFF012ECFFF010ECFFF0000E106ECD
:10FEDE00020E0F6E36ECFFF0B1AE78EFFFF07AEF58
:10FEEE00FFF073EFFFF06BEFFFF0FEEFFFF080839C
:10FEFE0086898C8F9295989B9EA2A5A7AAADB0B32A
:10FF0E00B6B9BCBEC1C4C6C9CBCED0D3D5D7DADC48
:10FF1E00DEE0E2E4E6E8EAEBEDEEF0F1F3F4F5F61E
:10FF2E00F8F9FAFAFBFCFDFDFEFEFEFFFFFFFFFFF8
:10FF3E00FFFFFEFEFEFDFDFCFBFAFAF9F8F6F5F406
:10FF4E00F3F1F0EEEDEBEAE8E6E4E2E0DEDCDAD740
:10FF5E00D5D3D0CECBC9C6C4C1BEBCB9B6B3B0AD75
:10FF6E00AAA7A5A29E9B9895928F8C898683807C4A
:10FF7E00797673706D6A6764615D5A5855524F4C4D
:10FF8E00494643413E3B393634312F2C2A2825230E
:10FF9E00211F1D1B1917151412110F0E0C0B0A0918
:10FFAE00070605050403020201010100000000001E
:10FFBE0000000101010202030405050607090A0BF0
:10FFCE000C0E0F1112141517191B1D1F2123252896
:10FFDE002A2C2F313436393B3E414346494C4F5241
:10FFEE0055585A5D6164676A6D707376797C47EF18
:02FFFE00FFF012
:020000040020DA
:10000000FF0FFF0FFF0FFF0FFF0FFF0FFF0FFF0F80
:10001000FF0FFF0FFF0FFF0FFF0FFF0FFF0FFF0F70
:020000040030CA
:0A0000008CFEFFFC9FFFFFFFFFFFD7
:00000001FF
